:020000020000FC
:0C0000000C9437000C9446000C94660031
:100054003F065B4F666D7D077F6F222714E0A0E6A5
:10006400B0E02D931A95E9F708952FEF2ABB27BB2B
:1000740024E02EBF2FE52DBFF0DF2FE025BF20ECBD
:100084002BBF78940C9444002F932FB72F93AF93E6
:10009400BF9322272BBBA4E6B0E02C9128BBA0E69B
:1000A400B0E0A20F2C91E4E5F0E0E20F24912BBB29
:1000B400A4E6B0E02C91239523702C93BF91AF91CB
:1000C4002F912FBF2F9118951F932F932FB72F93F5
:1000D400AF93BF93A0E6B0E012E02C9123952C934C
:1000E4002A3059F422272D932C9123952C932630D2
:1000F40021F422272D931A9581F7BF91AF912F9167
:080104002FBF2F911F911895E8
:00000001FF
