:020000020000FC
:100000000C9404000C94280004E00EBF0FE50DBF13
:100010000E9490000E949B000E945D000E94C80008
:100020000E94760006E40E94CA00009160001091D0
:100030006200011759F400916100109163000117EB
:1000400029F404E60E94C9000E949B000C940C0055
:100050000F930FB70F931F932F933F93EF93FF933C
:10006000E5E6FF2700916400102F110F110F110F0B
:1000700022B3277C212B22BB222728BB03950530E6
:1000800008F0002700936400E00F1081202F220F5A
:10009000220F220F32B3377C322B32BB18BB0091B8
:1000A0006A00039500936A00FF91EF913F912F91B1
:1000B0001F910F910FBF0F9118950E946000089536
:1000C0000091600017E00E946F00009360000091B3
:1000D000610015E00E946F000093610008950060C8
:1000E0001AF0011711F4025003950895FF27E0E676
:1000F0000E947F00FF27E2E60E947F000895119191
:100100000E9489001081E5E6E10F1081102B108319
:10011000089501E01A951AF0000F0C948A000895D2
:1001200000E40BBF03E005BF0027009364000093C9
:100130006A007894089500E00093600002E0009364
:1001400061000F920F920E94A8000E94C8000895BB
:100150000F931F93EF93FF930EB7F02F0DB7E02F80
:10016000E395E395E39500916A00102F1770153021
:100170000CF013501193102F111F177015300CF045
:1001800014501E5F1083FF91EF911F910F910895FE
:10019000089508951FEF1A95F1F71CE41A95F1F7E9
:0E01A0000A9511F40000089500000000F3CF4E
:00000001FF
