:020000020000FC
:100000000C9404000C94280004E00EBF0FE50DBF13
:100010000E94CD000E94D9000E9463000E94070147
:100020000E94B30006E40E941A0100916000109142
:100030006200011759F400916100109163000117EB
:1000400029F40AEF0E940F010E94D9000C940C00C1
:100050000F930FB70F931F932F933F93EF93FF933C
:10006000E5E6F0E000916400102F110F110F110F61
:1000700022B3277C212B22BB28B3207828BB0395F1
:10008000053008F00027009364001127E00FF11FEE
:100090001081202F220F220F220F32B3377C322BF8
:1000A00032BB28B32078122B18BB00916A0003954D
:1000B00000936A00FF91EF913F912F911F910F9153
:1000C0000FBF0F9118950F930FB70F931F9300E475
:1000D0000E94A600103029F4009160000A95009358
:1000E0006000133029F400916000039500936000D4
:1000F00001E40E94A600103029F4009161000A95E5
:1001000000936100133029F400916100039500937E
:1001100061000E9490001F910F910FBF0F910895F1
:100120000091600017E00E949F0000936000009122
:10013000610015E00E949F00009361000895006037
:100140001AF0011711F402500395089507B900E859
:10015000076006B906B1006406B906B106FDFDCF19
:1001600004B115B10895FF27E0E60E94BC00FF2707
:10017000E2E60E94BC00089511910E94C600108121
:10018000E5E6E10F1081102B1083089501E01A9528
:100190001AF0000F0C94C700089500E40BBF03E0B1
:1001A00005BF0FEF07BB08E301BB0CEF0ABB789458
:1001B000089500E00093600002E0009361000F9258
:1001C0000F920E94EC000F91009362000F91009338
:1001D00063000E940701089500240EB7F02F0DB7A9
:1001E000E02F00916A00102F07701E7016950530E1
:1001F0000CF0045015300CF014500E5F23E0E20FA9
:10020000F01D008321E0E20FF01D10830895E5E664
:10021000F0E005E0112411920A95E9F7089528B35A
:1002200030E8232728BB2EE100002A95E9F70A953C
:10023000B1F708951FEF1A95F1F71CE41A95F1F73D
:0E0240000A9511F40000089500000000F3CFAD
:00000001FF
